:020000040800F2
:1000000078240020010100081D1B00089317000838
:10001000C91A0008C3010008BD2100080000000043
:10002000000000000000000000000000BF1E0008EB
:10003000C501000800000000BD1E0008151F0008D3
:100040001B0100081B0100081B0100081B01000820
:100050001B0100081B0100081B0100081B01000810
:100060001B0100081B0100081B0100081B01000800
:100070001B0100081B0100081B0100081B010008F0
:100080001B0100081B0100081B0100081B010008E0
:10009000B12100081B0100081B0100081B0100081A
:1000A0001B0100081B0100081B0100081B010008C0
:1000B000B11F00081B0100081B0100081B010008FC
:1000C0001B0100081B0100081B0100081B010008A0
:1000D0001B0100081B0100081B0100081B01000890
:1000E000C70100081B0100081B010008DFF80CD045
:1000F00000F02AF8004800475D2800087824002016
:100100000648804706480047FEE7FEE7FEE7FEE7B1
:10011000FEE7FEE7FEE7FEE7FEE7FEE7691F0008F1
:10012000ED000008D2B201E000F8012B491EFBD21D
:1001300070470022F6E710B513460A4604461946F2
:10014000FFF7F0FF204610BD064C074D06E0E068C3
:1001500040F0010394E8070098471034AC42F6D30E
:10016000FFF7C8FF504900087049000870B58C18A7
:1001700010F8015B15F0070301D110F8013B2A11BB
:1001800006D110F8012B03E010F8016B01F8016BA8
:100190005B1EF9D12B0705D40023521E0DD401F8A4
:1001A000013BFAE710F8013BCB1A921C03E013F86D
:1001B000015B01F8015B521EF9D5A142D8D30020A2
:1001C00070BDFEE7704710B54FF4805000F0C0FBE3
:1001D000BDE810404FF4005000F0BABB704790F8F3
:1001E0002020012A07D0022A05D0416A41F480214B
:1001F000416201207047006842690A434261002061
:100200007047F0B590F820500468A468012D05D01F
:10021000022D03D0416A41F4802153E014F0406F75
:1002200001D1E5004BD5C4F30164022C03D9416A26
:1002300041F4000146E00125A5401D608D684FF4A2
:10024000C0739DB1CE6835434E6845EAC605066861
:1002500003EB0417F5514FF4C275076805EB04155D
:100260000E697E51097D012905D009E00E88CD680F
:1002700045EA4655EBE701684E5946F480764E5103
:100280001179D2F805504FF4C67641EA0525016888
:1002900006EB04168D511178D2F801204FF4C47585
:1002A00041EA0221026805EB04155151006803EB95
:1002B0000411425842F0010242500020F0BD416A50
:1002C00041F4001141620120F0BD000010B590F82A
:1002D00020300268012B07D0022B05D0416A41F47F
:1002E00080214162012010BDD2F8000240F00100DF
:1002F000C2F80002087D00F01F0301209840D2F8E8
:100300001C328343C2F81C32CB69B3B9D2F80C3229
:100310008343C2F80C328C894B6864F31F434C69E9
:1003200002EBC404C4F840320C890B6864F31F4329
:100330004C6902EBC404C4F84432CB69012B16D1DA
:10034000D2F80C320343C2F80C320C884B6864F3C9
:100350001F434C6902EBC404C4F840320C89CB68DB
:1003600064F31F434C6902EBC404C4F844328B6944
:10037000002BD2F804320FD053EA0003C2F8043243
:100380000B69002BD2F8143208D00343C2F81432A0
:10039000096A012904D008E08343EFE78343F5E7C6
:1003A000D2F81C120143C2F81C12D2F8000220F04D
:1003B0000100C2F80002002010BD704730B590F86F
:1003C0002040012C05D0022C03D0416A41F4802149
:1003D0005DE00468002955D02469A40754D04FF487
:1003E000D874056804EB01142D5915F004059560C7
:1003F00005682D594ED0ED08556005682C5904F05C
:100400000204D4604FF4DA74056804EB01142D592A
:1004100005F00F05156105682D59C5F30725956190
:1004200005682C59240C54614FF4DC72046802EB0B
:100430000112A4581C700468A458240A5C70046853
:10044000A458240C9C700468A258120EDA704FF461
:10045000DE72046802EB0112A4581C710468A458EF
:10046000240A5C710468A458240C9C710468A25886
:10047000120EDA71006881B1016941F02001016159
:10048000002030BDE468A8E7416A41F400114162F0
:10049000012030BD6D0D1560AFE7C16841F020014E
:1004A000C160EDE72DE9F05F05460068002446696C
:1004B000D0F804908768D0F80CB0D0F810A0D0F82D
:1004C0001880F10748D0F90714D001218160B807DE
:1004D00003D5284600F021FA0CE0780702D54FF446
:1004E000006407E0380702D54FF4805402E0284644
:1004F00000F012FAF80516D529684FF4807088606C
:10050000B80503D5284600F00AFA0CE0780502D5B4
:1005100044F4005407E0380502D544F4804402E076
:10052000284600F0FBF9F80316D529684FF480300F
:100530008860B80303D5284600F0F3F90CE078038F
:1005400002D544F4004407E0380302D544F4803473
:1005500002E0284600F0E4F9300707D55FEACB60F7
:1005600004D52968102044F40074C86070074FF067
:10057000080707D55FEA0B7004D52868C7602846CE
:1005800000F05AF9B00706D52868C068800702D085
:10059000284600F053F9700607D55FEACA6004D513
:1005A0002968102044F480640861B00607D55FEA2A
:1005B0000A7004D528680761284600F07DF9F00626
:1005C00006D528680069800702D0284600F075F932
:1005D000B00308D55FEAC96005D5296810204860D6
:1005E000284600F06BF9F00307D55FEA097004D5DF
:1005F00028684760284600F095F9300446D55FEA40
:10060000497040D5F00504D55FEAC87001D044F0C8
:100610000104B00504D55FEA887001D544F00204F6
:10062000700504D55FEA487001D544F00404300534
:1006300029D518F0700F26D008F07000402815D08A
:1006400006DC102809D020280AD0302816D10AE06C
:1006500050280ED0602811D10EE044F008040DE0BF
:1006600044F010040AE044F0200407E044F04004A1
:1006700004E044F0800401E044F480742868816957
:1006800021F070018161296804204860002C05D0A8
:10069000686A204368622846FFF78FFEBDE8F09F36
:1006A00070B5040003D094F8200010B104E00120DC
:1006B00070BD204600F082F82068016821F0020138
:1006C000016000F053FA0546052604E000F04EFAFA
:1006D000401B0A2811D8206840688007F6D420689B
:1006E000016841F00101016000F040FA05460BE0AD
:1006F00000F03CFA401B0A2806D9606A40F400303A
:10070000606284F82060D2E720684068C007EFD0BC
:10071000207E0128206801683DD021F08001016021
:10072000607E01282068016838D021F04001016016
:10073000A07E01282068016833D021F020010160EB
:10074000E07E0128206801682ED041F01001016090
:10075000207F01282068016829D021F0080101606C
:10076000607F01282068016824D021F00401016025
:10077000D4E902010843D4E9041211430843616833
:10078000491E08432168C86100206062012084F886
:100790002000002070BD41F08001C0E741F0400121
:1007A000C5E741F02001CAE721F01001CFE741F091
:1007B0000801D4E741F00401D9E7000010B586B084
:1007C000002100910191029103910068174988422C
:1007D0002AD11748C16941F00071C161C16901F0B6
:1007E00000710491816941F0040181618069114CBB
:1007F00000F0040004904FF4006000906946204629
:1008000000F0B2F8A01400900220019003200390A1
:100810006946204600F0A8F800221146142000F096
:1008200011FA142000F000FA06B010BD0064004078
:1008300000100240000801407047000070B50446F7
:1008400000681A4988422AD1194B1A4A00212046C9
:10085000FFF7B4FD18BB17480068A0F5A061813907
:100860001DD1134948786C2802D08A78602A08D1B3
:100870000F4B002208338D5C9D54521CD2B2082AC3
:10088000F9D3392802D08878202808D108480022D6
:1008900010308B5C8354521CD2B2082AF9D3204604
:1008A000BDE870400221FFF79ABC000000640040E0
:1008B00014010020701F002070477047704700002F
:1008C00070B5044690F82000012804D0606A40F416
:1008D0000020606218E0022084F82000206801688F
:1008E00021F00101016000F041F905460EE000BF72
:1008F00000F03CF9401B0A2808D9606A40F4003037
:100900006062052084F82000012070BD20684068E6
:10091000C007EDD1606270BD704770477047704787
:10092000704770477047000070B5044600F01EF92C
:100930000546601C02D004480078044400F016F913
:10094000401BA042FAD370BD440100207047000054
:10095000044910B50A68024202D00860FFF7F6FFAA
:1009600010BD0000140401402DE9F84FDFF8B891E4
:10097000002409F1040A0AF1040B23460F270BF1A6
:10098000040EC9E00125A5402A40AA427DD1674E48
:10099000D1F804C0ACEB0608B44532D014DCBCF18D
:1009A000030F3AD009DCBCF1000F2AD0BCF1010FD3
:1009B0001CD0BCF1020F31D11DE0BCF1110F17D0DA
:1009C000BCF1120F2AD119E0B8F5881F19D006DC46
:1009D000B8F5803F15D0B8F5801F1FD111E0B8F5EC
:1009E000001F0ED0B8F5041F18D10AE0CB6815E03F
:1009F000CB681B1D12E0CB6808330FE0CB680C33CB
:100A00000CE08B682BB1012B4FF0080303D045613C
:100A100004E0042302E0056100E00023FF2A01D87E
:100A2000064601E000F104064FEA840501D9A5F16C
:100A30002005D6F8008007FA05FC28EA0C0803FA1E
:100A400005F548EA0508C6F800804D68ED0062D556
:100A5000374DAE6946F00106AE61AD6924F003067C
:100A600005F001050095334D06EB050CDCF8085048
:100A7000A607360F07FA06F825EA0805DFF8B8805A
:100A8000404503D14FF0000817E044E0DFF8AC80A8
:100A9000404502D14FF001080FE0DFF8A480404547
:100AA00002D14FF0020808E0DFF89880404502D1FB
:100AB0004FF0030801E04FF0040808FA06F848EA8E
:100AC0000508CCF808804D68D9F80060ED034D4664
:100AD00001D5164300E096432E604D68DAF80060B9
:100AE000AD03554601D5164300E096432E604D6890
:100AF000DBF80060ED025D4601D5164300E0964349
:100B00002E604D68DEF80060AD02754601D51643D3
:100B100000E096432E60641C0D682A46E5407FF491
:100B200031AFBDE8F88F0000000401400000111053
:100B3000001002400000014000080140000C01408C
:100B400000100140001401408068084000D00120DE
:100B50007047C2680A4201D0416170470161704725
:100B60000AB1016170470904FBE700000148806891
:100B70007047000044010020024881680278114457
:100B80008160704744010020074810B5016841F0BA
:100B900010010160032000F075F8002000F006F855
:100BA00000F024F8002010BD0020024070B50D4D6B
:100BB00004464FF47A712878B1FBF0F00A490968CD
:100BC000B1FBF0F000F0ECFA48B9102C07D200228B
:100BD0002146501E00F036F800206C6070BD0120E8
:100BE00070BD000044010020500100200C4808B5F1
:100BF000816941F001018161816901F00101009188
:100C0000C16941F08051C161C06900F0805000901D
:100C10000448416821F0E06141F00071416008BD85
:100C20000010024000000140002809DB00F01F0214
:100C3000012191404009800000F1E020C0F800113E
:100C400070470000F0B40E4B1B680C46C3F3022340
:100C5000C3F10705042D00D90425191D072901D268
:100C6000002300E0DB1E012606FA05F1491E2140A3
:100C700099409E40761E16403143F0BC01F0A8BA60
:100C80000CED00E0064900F0070208684FF6FF038C
:100C9000184040EA0220034A1043086070470000F1
:100CA0000CED00E00000FA052DE9F0470F460500C5
:100CB00061D0434E306800F00700B84209D2306876
:100CC00020F0070038433060306800F00700B84279
:100CD00051D128683B4C810712D5400703D5606885
:100CE00040F4E06060602878000703D5606840F455
:100CF000605060606068A96820F0F00008436060A0
:100D00002878C00728D06868012810D021680228F8
:100D100010D0890700292EDA616821F00301014310
:100D20006160FFF723FF804641F288390DE02168BA
:100D30008903EFE78901EDE7FFF718FFA0EB080152
:100D4000494502D90320BDE8F0876068696800F072
:100D50000C00B0EB810FEFD1306800F00700B84213
:100D60000BD9306820F0070038433060306800F05D
:100D70000700B84201D00120E5E72878400705D5F3
:100D80006068E96820F4E060084360602878000744
:100D900006D56068296920F4605040EAC1006060AF
:100DA00000F038F86168084AC1F30311515CC8408B
:100DB0000649086006480068FFF7F8FE0020C2E711
:100DC0000020024000100240384900085001002075
:100DD000480100200448054900684968044AC1F3F5
:100DE0000221515CC84070475001002000100240B1
:100DF000484900080448054900684968044AC1F3A5
:100E0000C221515CC84070475001002000100240D0
:100E10004849000812A185B00FC98DE80F0014A041
:100E2000144A006804905168134801F00C03042B25
:100E300010D0082B0ED1C1F38343C9031DF8030062
:100E40000AD5516804AAC1F34041515C0A4A504393
:100E5000B0FBF1F005B0704708494843FAE70000DD
:100E600002030405060708090A0B0C0D0E0F1010EB
:100E7000010200000010024000127A0000093D004B
:100E80002DE9F84F040070D02078C04DC00749D03C
:100E90006868C0F38100012807D06868C0F381004A
:100EA000022809D16868C00306D52868800339D5AF
:100EB00060680028E7D035E06068B0F5803F0BD06F
:100EC00010B1B0F5A02F11D0286820F48030286030
:100ED000286820F4802002E0286840F480302860F0
:100EE000606890B1FFF742FE06460AE0286840F4C9
:100EF00080202860F0E700BFFFF738FE801B6428E1
:100F000073D828688003F7D50CE0FFF72FFE06465C
:100F100005E000BFFFF72AFE801B6428F0D8286890
:100F20008003F7D420789A4E80074FF001094FF0E4
:100F3000000839D5686810F00C0F07D06868C0F356
:100F40008100022809D16868C00306D42868800798
:100F500014D52069012808D110E02069B0B1C6F885
:100F60000090FFF703FE074605E00AE1FFF7FEFDEC
:100F7000C01B0228C4D828688007F7D52868616993
:100F800020F0F80040EAC10028600DE0C6F80080BB
:100F9000FFF7ECFD074604E0FFF7E8FDC01B022861
:100FA00023D828688007F7D4207800072CD5794803
:100FB000A169D9B1C0F80090FFF7D8FD074604E059
:100FC000FFF7D4FDC01B02280FD8686A8007F7D549
:100FD00071484FF4FA510068B0FBF1F0009000BF87
:100FE0000098411E0091FAD20EE080E0C0F8008027
:100FF000FFF7BCFD074604E0FFF7B8FDC01B022861
:1010000075D8686A8007F7D42078400760D5E8690A
:101010000027C00008D4E86940F08050E861E86922
:10102000012700F0805000905C480168C90513D486
:101030000168834641F480710160FFF797FD8246A5
:1010400006E000BFFFF792FDA0EB0A0064284ED82F
:10105000DBF80000C005F5D5E06801280AD008B12A
:10106000052813D0286A20F001002862286A20F0A1
:10107000040002E0286A40F001002862E06841F2C2
:10108000883B98B1FFF772FD82460BE0286A40F07A
:1010900004002862EEE700BFFFF768FDA0EB0A013D
:1010A00059455AD8286A8007F6D50CE0FFF75EFD4F
:1010B000824605E0FFF75AFDA0EB0A0159454CD8DE
:1010C000286A8007F6D41FB1E86920F08050E861F3
:1010D000E06988B36968C1F38101022944D002281C
:1010E000C6F8608004D0FFF741FD044638E034E0E4
:1010F000FFF73CFD074604E0FFF738FDC01B022860
:101100002BD828688001F7D4206AB0F5803F05D13C
:101110006868A16820F4003008436860D4E90801D9
:101120000843696821F4741108436860C6F8609048
:10113000FFF71CFD044606E025E000BFFFF716FDA3
:10114000001B022809D828688001F7D51BE000BFE2
:10115000FFF70CFD001B022802D90320BDE8F88F21
:1011600028688001F4D40EE00128F7D06868226A6C
:1011700000F48031914204D1616A00F47010884219
:1011800001D00120EAE70020E8E70000001002405B
:1011900000004242800442425001002000700040A2
:1011A00010B5401EB0F1807F01D3012010BD4FF07B
:1011B000E02460610F21601701F00AF80020A061AF
:1011C00007202061002010BD7047704770B590F86F
:1011D0003C20012A19D0012400F83C4F0222427021
:1011E00050F83C3C5A689D6822F070060A684968CD
:1011F000324325F0800529435A6050F83C2C916019
:10120000447000210170084670BD022070BD10B509
:10121000040003D094F83D0010B107E0012010BD98
:10122000002084F83C00204600F00CF8022084F8EE
:101230003D00211D206800F0C1FE012084F83D0022
:10124000002010BD00B585B00021009101910291F0
:1012500003910068B0F1804F24D11348C16941F077
:101260000101C161C16901F001010491816941F08D
:10127000040181618069694600F004000490012046
:1012800000900220019003900848FFF76DFB0022B8
:1012900005211C20FFF7D6FC1C20FFF7C5FC0448E5
:1012A00000F008F805B000BD001002400008014041
:1012B000B41F00200168CA6842F00102CA600068D9
:1012C000816801F00701062903D0016841F001019E
:1012D00001600020704770B5044690F83C0001287A
:1012E00017D0012584F83C50022084F83D00206886
:1012F000826822F0770222F47F42826008685028D8
:1013000030D00DDC20284DD005DC98B310283BD11F
:1013100048E0022070BD302844D0402834D139E064
:10132000602828D0702806D0B0F5805F2CD0B0F5AA
:10133000005F29D10AE0CB68D1E90121206800F0E3
:1013400073FE2068816841F0770109E0CB68D1E93C
:101350000121206800F068FE2068816841F4804126
:10136000816011E0CA684968206800F06FFE502172
:10137000206807E016E0CA684968206800F077FE38
:101380006021206800F05AFE84F83D50002084F867
:101390003C0070BDCA684968206800F057FE4021D3
:1013A0002068EFE7226801461046EBE7704770B50A
:1013B0000446006801694FF00005C943890715D448
:1013C000C168C943890711D4E91E01610120207752
:1013D000206880698007204602D0FFF7E7FF04E01D
:1013E00000F098F8204600F096F82577206801690B
:1013F000C943490717D4C168C943490713D46FF0DB
:1014000004010161022020772068806910F4407F88
:10141000204602D0FFF7CAFF04E000F07BF8204628
:1014200000F079F8257720680169C943090716D4C7
:10143000C168C943090712D46FF008010161042093
:1014400020772068C0698007204602D0FFF7AEFFF2
:1014500004E000F05FF8204600F05DF82577206892
:101460000169C943C90617D4C168C943C90613D461
:101470006FF010010161082020772068C06910F426
:10148000407F204602D0FFF791FF04E000F042F8D1
:10149000204600F040F8257720680169C943C90754
:1014A00008D1C168C943C90704D1891E016120461A
:1014B00000F032F820680169C943090609D4C168FF
:1014C000C943090605D46FF0800101612046FFF78A
:1014D0007BFE20680169C943490609D4C168C94334
:1014E000490605D46FF040010161204600F06CF818
:1014F00020680169C94389060BD4C168C9438906BC
:1015000007D46FF0200101612046BDE87040FFF76D
:101510005CBE70BD7047704710B52149006809680E
:1015200088423BD102211F48FFF713FB1E483C2392
:101530004188491C89B2B1FBF3F203FB1212B1FBE3
:10154000F3F3418042700479A4EB041403EB8403A9
:1015500003704FF46163B1FBF3F181801E20B2FB95
:10156000F0F100FB112048B90020104B104C01464F
:1015700019542154401CC0B20828F9D3D0070DD10A
:101580000C4B0D4A0D490E48FEF73BFEBDE81040DE
:10159000084B0C4A09490A48FEF733BE10BD00004B
:1015A000B41F0020000C01403C0100203401002049
:1015B0002C0100201001002000010020581F0020F5
:1015C0008C1F002008010020704770B5040004D073
:1015D00094F83900002510B106E0012070BD84F8B0
:1015E0003850204600F022F8242084F83900206882
:1015F000C16821F40051C160204600F04BFD206815
:10160000016921F4904101612068416921F02A01BA
:1016100041612068C16841F40051C160E563202048
:1016200084F8390084F83A00002070BD70B586B0A7
:1016300000240094019402940394234E03682349E8
:1016400002200322224DB34219D18B6943F4804317
:101650008B618B6903F4804304938B6943F004032B
:101660008B618969039201F0040104910102CDE9C3
:10167000001069462846FFF777F928151BE0154E3C
:10168000B3421FD1CB6943F40033CB61CB6903F480
:10169000003304938B6943F004038B6189690392DF
:1016A00001F0040104910421CDE9001069462846A7
:1016B000FFF75AF90820CDE900046946284602944C
:1016C000FFF752F906B070BD00380140001002402B
:1016D00000080140004400402DE9F843044690F81A
:1016E00039001F4616460D46202850D1A5B19EB19F
:1016F00094F8380001284AD0012084F838004FF0CF
:101700000008C4F83C80212084F83900FFF72EFA45
:10171000A6848146E68426E00120BDE8F883E08CBB
:10172000401EE084A0684B46B0F5805F4FF0000299
:101730004FF080012046009703D000F007FDE8B984
:101740000DE000F003FDC8B928882168C0F3080047
:101750004860206908B16D1C05E0AD1C03E02168FC
:1017600015F8010B4860E08C0028D8D14B460022C8
:1017700040212046009700F0E9FC08B10320CCE7A7
:10178000202084F8390084F838800020C5E7022042
:10179000C3E7FEE770B501220E4DD403214628466B
:1017A000FFF7DEF90122960331462846FFF7D8F904
:1017B00000F048F8002221462846FFF7D1F900F052
:1017C00041F8002231462846FFF7CAF9BDE87040CB
:1017D00000F038B80010014070B50B4D4FF40044D4
:1017E000002221462846FFF7BBF901229103284633
:1017F000FFF7B6F900F026F821462846BDE870400C
:101800000122FFF7ADB900000010014070B50C4C8B
:101810000122D1032046FFF7A3F900F013F80122BB
:10182000950329462046FFF79BF900F00BF80022AC
:1018300029462046FFF794F9BDE8704000F002B851
:10184000001001400A20401EC0B2FCD270470000C8
:1018500070B50D4D4FF4805421462846FFF774F9BA
:1018600038B90A20FFF760F821462846FFF76CF9DF
:1018700008B1002070BD21462846FFF765F9002811
:10188000F9D0012070BD0000000C014070B50D4D75
:101890004FF4005421462846FFF756F938B90A207C
:1018A000FFF742F821462846FFF74EF908B100201D
:1018B00070BD21462846FFF747F90028F9D00120DE
:1018C00070BD0000000C01400F4810B50D490160CB
:1018D0000321416000214FF480228160C0E903129E
:1018E0004FF4A0024261017641768176C17601779C
:1018F0004177FEF7D5FE002803D0BDE81040FEF783
:101900006DBC10BD006400408C1F00202DE9F0412B
:1019100086B00025324800950195029503958169AE
:1019200041F010018161816901F010010491816928
:1019300041F020018161816901F0200104918169F8
:1019400041F004018161816901F004010491816920
:1019500041F0080181618069224F00F00800049085
:1019600001224FF440413846FFF7FAF8DFF878805B
:101970000022C3214046FFF7F3F801244FF48040D2
:10198000CDE900040226CDE9024669463846FEF755
:10199000EBFFE003009001AA112082E851006946A4
:1019A0003846FEF7E1FFC3208DE8710069464046E6
:1019B000FEF7DAFF4FF4405000900C48CDE90105E6
:1019C00069464046FEF7D0FF002201212820FFF79C
:1019D00039F92820FFF728F906B0BDE8F0810000AA
:1019E0000010024000100140000C014000002110D6
:1019F00010B586B000241748009401940294039413
:101A000004944FF080410594016041F61F41C0E904
:101A1000011442F20F71C0E903148461FFF7F7FB70
:101A200008B1FEF7DBFB4FF480500090694609488F
:101A3000FFF751FC08B1FEF7D1FB049404A9054857
:101A40000594FFF7C3FB002801D0FEF7C7FB06B0E3
:101A500010BD0000B41F00200C4810B50A490160F9
:101A60004FF4E1314160002181600C22C160C0E986
:101A700004128161C161FFF7A8FD002803D0BDE811
:101A80001040FEF7ABBB10BD00380140F41F002032
:101A90000C4810B50A4901604FF4E1314160002162
:101AA00081600C22C160C0E904128161C161FFF74D
:101AB0008CFD002803D0BDE81040FEF78FBB10BDA1
:101AC0000044004034200020FEE7000070B5FFF71E
:101AD000DDFE114C6070FFF7BBFEA070617804F171
:101AE0001805012904D1217805EBC101497821703D
:101AF000012806D100F014F8207805EBC0008078AA
:101B00002070207805EBC000406860608047BDE829
:101B1000704000F0BBB800000000002070470000DB
:101B200030B40021094B0A465FF00000C0EB0014FE
:101B300003EB8404401CC0B262545028F6D3491C05
:101B4000C9B21029F0D330BC00F0A0B85801002071
:101B500030B1012807D100215FF0A70000F093B950
:101B60000021A620FAE77047C0F17F0010B5C0B28F
:101B7000C30800F00700012484400948E4B2C1EB27
:101B800001112AB100EB8100C15C2143C15410BD99
:101B900000EB8101C85C64EA0000C043C85410BD7A
:101BA0005801002010B50021AE2000F06CF9002192
:101BB000084600F068F90021102000F064F90021C7
:101BC000202000F060F90021812000F05CF9002164
:101BD0006F2000F058F90021A02000F054F90021F6
:101BE000C02000F050F90021A42000F04CF90021A1
:101BF000A62000F048F90021D52000F044F900218A
:101C0000912000F040F90021D92000F03CF900219A
:101C1000222000F038F90021DB2000F034F9002107
:101C20003F2000F030F90021A82000F02CF900211D
:101C30004F2000F028F90021D32000F024F90021E2
:101C4000682000F020F90021DC2000F01CF90021C0
:101C5000084600F018F90021AD2000F014F9002129
:101C60008A2000F010F9FFF75BFF0021AF2000F0A1
:101C70000AF9BDE810400020FFF76ABF02460120C4
:101C800000E05043491EC9B2FBD2704770B5194EEF
:101C9000002400BF04F1B000C0B2002100F0F3F84E
:101CA0000021084600F0EFF80021102000F0EBF8CA
:101CB000FFF770FD782000F003F9FFF7A7FD402043
:101CC00000F0FEF8FFF7A2FD5FF00005C5EB051080
:101CD00006EB8000005D00F0F3F8FFF797FD6D1C48
:101CE000EDB2502DF2D3FFF777FD641CE4B2102C57
:101CF000D0D370BD580100202DE9FC4F1C460E4684
:101D000082468B460190082B0DD0600700D0012041
:101D100000EBD40061084843C0B28146203AD0B2FB
:101D2000009000204BE00620F7E7082C13D00C2C85
:101D300018D0102C1BD0182C44D10098234900EB4C
:101D4000C00000BF01EB8001002711F80850E80730
:101D500012D00B9A13E000981D4900EB400001EBF4
:101D60004001F1E700981B4900EB4000EAE71A49FF
:101D7000009801EB0011E7E70B9828B300223146E9
:101D80005046FFF7F1FE761C7F1C6D08FFB2F6B2DD
:101D9000082FDCD30AF1010000F0FF0A082C0AD05A
:101DA0000199AAEB0100B0EB540F04D10BF108002C
:101DB0008A4600F0FF0B08F101005E46C0B2804683
:101DC0004845B2D3BDE8FC8F0122D8E7B4370008FC
:101DD000282B0008502D0008C43100082DE9F84FC9
:101DE0000025DDE90A691F4692468B468046082E8B
:101DF00000D1022500241CE0381B401EC1B20A207D
:101E0000FFF73CFFBAFBF0F00A21B0FBF1F201FB57
:101E10001200CDF8009080B13030C2B205EB56010F
:101E200001FB0480C0B233465946FFF765FF641CCE
:101E3000E4B2BC42E0D3BDE8F88F05EB560101FBEC
:101E40000480C0B233463022EEE72DE9F8411E4649
:101E5000154688460446079F0BE033464146204618
:101E60000097FFF749FF082E0AD004EB5600C4B2D2
:101E70006D1C2A78A2F120005E28EED9BDE8F88119
:101E8000A41DE4B2F4E770B50C460546FFF782FCEA
:101E9000782000F015F8FFF7B9FC0CB1402000E005
:101EA000002000F00DF8FFF7B1FC284600F008F81C
:101EB000FFF7ACFCBDE87040FFF78EBC7047704781
:101EC0002DE9F041124F054600244FF400484FF42D
:101ED0008046280601D5012200E00022414638460E
:101EE000FEF73EFEFFF7AEFC012231463846FEF714
:101EF00037FEFFF7A7FC002231463846FEF730FEDA
:101F00006806641C050EE4B2082CE2D3BDE8F0813B
:101F100000100140FEF730BE30B58FB02821684672
:101F2000FEF707F914210AA8FEF703F901210804B6
:101F3000CDE900100024029402250491CDE9075058
:101F40004FF4E01009906846FEF79AFF0F20CDE9A4
:101F50000A056802CDE90C4002210AA80E94FEF79A
:101F6000A3FE0FB030BD00000D48016841F0010133
:101F7000016041680B4A1140416001680A4A114002
:101F80000160016821F480210160416821F4FE01B3
:101F900041604FF41F0181600449C003086070472D
:101FA000001002400000FFF8FFFFF6FE08ED00E021
:101FB0000148FFF7FCB90000B41F0020F0B502682B
:101FC000164B174C174D4FF08047984205D0B8423A
:101FD00003D0A04201D0A84203D122F070064A6883
:101FE0003243984205D0B84203D0A04201D0A84263
:101FF00003D122F44074CA6822434C6922F0800263
:10200000224302608A68C2620A688262984201D1F1
:102010000969016301214161F0BD0000002C01400C
:10202000000400400008004010B5846842EA032222
:1020300024F47F440A432243826010BD826822F068
:1020400070020A4342F007018160704710B5036ACD
:10205000046A24F001040462846924F0F00444EA70
:10206000021423F00A020A438461026210BD10B513
:10207000036A23F0100303628369046A23F4704344
:1020800043EA023224F0A00343EA011182610162B3
:1020900010BD00002DE9F041044600680169E268C6
:1020A00021F44051114301612169A068084361692D
:1020B00008432168CA6841F20C639A430243CA602C
:1020C00020684169A26921F44071114341611E49B0
:1020D000206864253226884202D1FEF78BFE01E09B
:1020E000FEF778FE00EBC00101EB001160686FF0B5
:1020F00018078000B1FBF0F2B2FBF5F2B1FBF0F390
:102100007A4303EB8202B1FBF0F306EB0212B2FB5F
:10211000F5F2B3FBF5F302F0F00202EB0312B1FBB0
:10212000F0F3B1FBF0F0B0FBF5F0784303EB800087
:1021300006EB0010B0FBF5F0216800F00F00104432
:102140008860BDE8F0810000003801402DE9F041D1
:10215000984617460E460446069D1DE0681C1BD097
:102160002DB1FEF703FDA0EB0800A84214D92068AA
:10217000C16821F4D071C1602068416921F001017A
:102180004161202084F8390084F83A00002084F866
:1021900038000320BDE8F0812068006836EA0000BE
:1021A00004D00020B842D9D00020F3E70120F9E79D
:1021B0000148FEF777B900008C1F0020FEE7000001
:1021C000014A024900F023B86D22000854010020A2
:1021D0000907090E002804DB00F1E02080F8001454
:1021E000704700F00F0000F1E02080F8141D7047E8
:1021F00002E008C8121F08C1002AFAD170477047D0
:10220000002001E001C1121F002AFBD170472DE917
:10221000F04116460F460446002503E03946B04714
:10222000641C6D1C20780028F8D12846BDE8F08198
:1022300000B58BB00020012103900490CDE9060188
:10224000CDE908100590009001900290694606487B
:10225000FEF73CF80448FEF733FB02210248FDF785
:10226000BEFF0BB000BD00008C1F002013B54FF661
:10227000FF73012269460248FFF72EFA00981CBD41
:10228000342000207CB501211F48FEF762FC0124A8
:1022900018231EA20C2100200094FFF7D6FD18235E
:1022A0001DA2282118460094FFF7CFFD10231CA281
:1022B000412119200094FFF7C8FD1020CDE900044A
:1022C00019480423422102884120FFF787FD182581
:1022D0001648CDE900540278022328214920FFF74F
:1022E0007DFD1348CDE900540278022328212520E2
:1022F000FFF774FD0F48CDE900540288022328211E
:102300000020FFF76BFD7CBD000C014052756E5440
:10231000696D653A000000003A20203A0000000094
:102320006E756D203D0000003E0100203D01002043
:102330003C0100204001002008B500F0F1FA012026
:1023400000210090102302A20846FFF77EFD08BD81
:102350002D3E200008B500F063FB01200090102303
:1023600002A211210020FFF770FD08BD2D3E2000C4
:1023700008B500F055FB01200090102302A2212196
:102380000020FFF762FD08BD2D3E200008B500F0DB
:1023900047FB01200090102302A231210020FFF70B
:1023A00054FD08BD2D3E200008B500F07BFB012048
:1023B00000210090102302A20846FFF746FD08BD49
:1023C0002D3E200008B500F06DFB01200090102389
:1023D00002A211210020FFF738FD08BD2D3E20008C
:1023E00008B500F05FFB01200090102302A221211C
:1023F0000020FFF72AFD08BD2D3E200008B500F0A3
:1024000051FB01200090102302A231210020FFF790
:102410001CFD08BD2D3E20002DE9FC4101240021BA
:1024200010232BA208460094FFF70FFD10232CA2C7
:10243000194600200094FFF708FD10232BA220214D
:1024400000200094FFF701FD10232BA23021002073
:102450000094FFF7FAFC10232BA2402100200094E7
:10246000FFF7F3FC2C4E0A27102570783178CDE960
:10247000005400EB0120B0FBF7F203232946202093
:10248000FFF7ACFCCDE900542021B27803230846C5
:10249000FFF7A4FC214E032370783178CDE9005476
:1024A00000EB0120B0FBF7F230214020FFF796FC53
:1024B00070793179CDE9005400EB0120B0FBF7F2DF
:1024C000402103230846FFF789FCBDE8FC8100009A
:1024D000202043414E20496E666F312000000000ED
:1024E0004341503D2020204148000000534F433DD0
:1024F0002020202500000000566F6C746167653D48
:10250000202020560000000043757272656E743DF5
:102510002020204100000000340100202C01002078
:102520007CB501240021102313A208460094FFF774
:102530008CFC102314A2194600200094FFF785FCA0
:102540001025154ECDE9005432780323294620206A
:10255000FFF744FCCDE9005472780323102160207A
:10256000FFF73CFC02B00D4BBDE870400C4A0D4932
:102570000D48FDF746BE0000202043414E20496E25
:10258000666F32200000000044303D2020202020D3
:1025900044313D20202000003401002010010020A3
:1025A00010000020581F00208C1F00207CB5012443
:1025B0000021102321A208460094FFF746FC1023B7
:1025C00022A2194600200094FFF73FFC102323A20B
:1025D000202100200094FFF738FC0A20FEF7A4F920
:1025E00010252248CDE9005401794079042301EBFC
:1025F000002229463320FFF7F1FB1D48CDE90054A6
:1026000001794079042301EB002220214020FFF7CB
:10261000E5FB0A20FEF788F9FFF71AF901280CD12B
:102620001449154B0A464879401C487102B01349B9
:10263000BDE870401248FDF7E4BD7CBD2020434159
:102640004E20496E666F3320200000005370656590
:10265000643A20202020202F72706D004375727222
:10266000656E743A202020202F6D41001C0100204F
:10267000240100200800002010010020581F002025
:102680008C1F002008B500F04BF9012000901023AA
:1026900002A211210020FFF7D8FB08BD2D3E20002B
:1026A00008B5012000210090102302A20846FFF780
:1026B000CCFB08BD202034383520496E666F3120B0
:1026C0000000000008B5012000210090102302A2A4
:1026D0000846FFF7BAFB08BD202034383520496E84
:1026E000666F32200000000008B501200021009034
:1026F000102302A20846FFF7A8FB08BD20203438AB
:102700003520496E666F33200000000008B50120B7
:1027100000210090102302A20846FFF796FB08BD97
:1027200020205541525420496E666F312000000030
:1027300008B5012000210090102302A20846FFF7EF
:1027400084FB08BD20205541525420496E666F32EB
:102750002000000008B5012000210090102302A2F3
:102760000846FFF772FB08BD20205541525420490E
:102770006E666F332000000008B500F0D1F801202C
:102780000090102302A221210020FFF75EFB08BD6C
:102790002D3E200008B500F0C3F801200090102362
:1027A00002A231210020FFF750FB08BD2D3E200082
:1027B00008B500F0F3F8012000210090102302A2D8
:1027C0000846FFF742FB08BD2D3E200038B500F05B
:1027D000E5F80124102307A2112100200094FFF73F
:1027E00034FB102304A2432100200094FFF72DFBAB
:1027F00038BD00002D3E2000202020202020202059
:10280000202020200000000008B500F0C7F80120BB
:102810000090102302A221210020FFF716FB08BD23
:102820002D3E200008B500F0B9F8012000901023DB
:1028300002A231210020FFF708FB08BD2D3E200039
:1028400008B500F0EDF8012000210090102302A24D
:102850000846FFF7FAFA08BD2D3E2000FEF794F96E
:10286000FFF75AFBFFF752F8FFF712F9FFF72CF8C2
:10287000FFF7F2F8FFF7BCF8FFF794F90020FFF735
:1028800067F91BA0FFF79CFCFFF7D2FC1D4840F244
:1028900001611D4B016000218160C160082101615F
:1028A00001461A4A1A48FDF7ACFC0A20FEF73CF82C
:1028B000154B184A13491648FDF7A3FC0A20FEF7EA
:1028C00033F8114B144A0F491148FDF79AFC0A20BE
:1028D000FEF72AF80C4B114A0A490D48FDF791FC06
:1028E0000A20FEF721F800BFFFF7F0F8FCE7000030
:1028F00057656C636F6D20546F2041482D59440D0E
:102900000A000000581F002010010020E8000020ED
:102910008C1F002008000020F0000020F80000209C
:1029200038B50124002110230DA208460094FFF7BA
:102930008CFA10230EA2112100200094FFF785FAD3
:1029400010230FA2212100200094FFF77EFA10230C
:102950000FA2312100200094FFF777FA38BD000064
:10296000202020312E43414E20204D6F6465000011
:10297000202020322E34383520204D6F6465000031
:10298000202020332E55415254204D6F64650000A5
:10299000202020342E4241434B20000038B5012432
:1029A000002110230DA208460094FFF74EFA1023D1
:1029B0000EA2112100200094FFF747FA10230FA266
:1029C000212100200094FFF740FA10230FA23121AB
:1029D00000200094FFF739FA38BD00002020203194
:1029E0002E4261636B202020200000002020203236
:1029F0002E456C65637420496E666F00202020337D
:102A00002E416C61726D20496E666F00202020346B
:102A10002E56656869636C6520496E666F0000001C
:102A200038B50124002110230DA208460094FFF7B9
:102A30000CFA10230EA2112100200094FFF705FAD2
:102A400010230FA2212100200094FFF7FEF910238C
:102A50000FA2312100200094FFF7F7F938BD0000E4
:102A6000202020312E4261636B20202020000000B6
:102A7000202020322E456C65637420496E666F00FD
:102A8000202020332E416C61726D20496E666F00EC
:102A9000202020342E56656869636C6520496E6677
:102AA0006F00000038B50124002110230DA2084654
:102AB0000094FFF7CAF910230EA211210020009400
:102AC000FFF7C3F910230FA2212100200094FFF784
:102AD000BCF910230FA2312100200094FFF7B5F9B3
:102AE00038BD0000202020312E4261636B20202061
:102AF00020000000202020322E456C6563742049A0
:102B00006E666F00202020332E416C61726D20496B
:102B10006E666F00202020342E56656869636C65F0
:102B200020496E666F0000000000000000000000F9
:102B3000002F000000000700070000147F147F141E
:102B400000242A7F2A1200626408132300364955A4
:102B5000225000000503000000001C22410000007C
:102B600041221C000014083E08140008083E080812
:102B7000000000A06000000808080808000060606D
:102B80000000002010080402003E5149453E0000AC
:102B9000427F4000004261514946002141454B318E
:102BA000001814127F10002745454539003C4A495A
:102BB00049300001710905030036494949360006CC
:102BC0004949291E00003636000000005636000034
:102BD00000081422410000141414141400004122AF
:102BE000140800020151090600324959513E007C87
:102BF0001211127C007F49494936003E4141412271
:102C0000007F4141221C007F49494941007F090959
:102C10000901003E4149497A007F0808087F000009
:102C2000417F4100002040413F01007F08142241C4
:102C3000007F40404040007F020C027F007F04087C
:102C4000107F003E4141413E007F09090906003ED8
:102C50004151215E007F0919294600464949493101
:102C60000001017F0101003F4040403F001F204024
:102C7000201F003F4038403F0063140814630007E2
:102C80000870080700615149454300007F41410039
:102C900000552A552A55000041417F0000040201D9
:102CA00002040040404040400000010204000020B7
:102CB00054545478007F48444438003844444420F5
:102CC00000384444487F00385454541800087E09A2
:102CD00001020018A4A4A47C007F0804047800006A
:102CE000447D4000004080847D00007F1028440027
:102CF0000000417F4000007C04180478007C080438
:102D0000047800384444443800FC24242418001873
:102D1000242418FC007C080404080048545454205F
:102D200000043F444020003C4040207C001C2040E8
:102D3000201C003C4030403C004428102844001C2B
:102D4000A0A0A07C004464544C4414141414141423
:102D50000000000000000000000000000000FC0077
:102D60000000000002000000000C020C0200000045
:102D70000000000090D0BCD0BC9000030003000015
:102D80001824FE448C000302070201001824D8B066
:102D90004C80000300010201C038E438E000010269
:102DA000020102020806000000000000000000000E
:102DB000000000F80402000000010204000204F810
:102DC00000000004020100009060F8609000000024
:102DD000010000002020FC20200000000100000075
:102DE0000000000000000806000000002020202055
:102DF00020000000000000000000000000000002B1
:102E0000000000000080601C0200040300000000BD
:102E1000F8040404F8000102020201000008FC00AA
:102E2000000000020302000018844424180003027A
:102E30000202020008042424D80001020202010058
:102E400040B088FC80000000000302003C242424E1
:102E5000C400010202020100F824242CC000010277
:102E6000020201000C04E41C040000000300000046
:102E7000D8242424D800010202020100384444442A
:102E8000F800000302020100000010000000000032
:102E9000020000000000200000000000060000000A
:102EA00000205088040200000000010290909090E1
:102EB0009000000000000000000204885020000282
:102EC000010000001804C4241800000002000000E3
:102ED000F804E494F80001020202020000E09CF011
:102EE000800002030000030204FC2424D800020333
:102EF00002020100F80404040C00010202020100B5
:102F000004FC0404F80002030202010004FC24741F
:102F10000C0002030202030004FC24740C000203F0
:102F200002000000F0080444CC400001020201004D
:102F300004FC2020FC040203000003020404FC043F
:102F40000400020203020200000404FC040406045C
:102F50000403000004FC24D00C040203020003025A
:102F600004FC04000000020302020203FC3CC03C1B
:102F7000FC0003000300030004FC30C4FC04020353
:102F800002000300F8040404F80001020202010038
:102F900004FC24241800020302000000F8848404C6
:102FA000F80001020207050004FC246498000203F3
:102FB00002000302182424448C00030202020100D0
:102FC0000C04FC040C0000020302000004FC0000DE
:102FD000FC04000102020100047C80E01C040000EB
:102FE000030000001CE03CE01C00000300030000A4
:102FF000049C609C0400020300030200041CE01C0B
:1030000004000002030200000C84641C040002039C
:10301000020203000000FE02020000000704040098
:10302000000E30C00000000000010200000202FE9D
:103030000000000404070000000402040000000077
:103040000000000000000000000008080808080850
:103050000000020000000000000000000040A0A0EE
:10306000C00000010202030204FC2020C000000393
:103070000202010000C020206000000102020200E4
:1030800000C02024FC0000010202030200C0A0A036
:10309000C0000001020202000020F8242404000203
:1030A000030202000040A0A0602000070A0A0A04F0
:1030B00004FC2020C0000203020003020020E40000
:1030C0000000000203020000000020E400000808E5
:1030D0000807000004FC80E0202002030200030235
:1030E0000404FC000000020203020200E020E020D1
:1030F000C00003000300030020E02020C000020302
:103100000200030200C02020C000000102020100F2
:1031100020E02020C000080F0A02010000C020208B
:10312000E0000001020A0F0820E040202000020316
:10313000020000000060A0A02000000202020300C4
:103140000020F820000000000102020020E0002022
:10315000E00000010202030220E020806020000065
:10316000030100006080E0806000000300030000B5
:1031700020608060200002030003020020E0208025
:1031800060200808070100000020A0602000000265
:1031900003020200000020DE02000000000704001D
:1031A000000000FF00000000000F00000002DE2011
:1031B00000000004070000000201020404020000F5
:1031C00000000000000000000000000000000000FF
:1031D00000000000000000F80000000000000033C4
:1031E0003000000000100C06100C0600000000006B
:1031F0000000000040C07840C0784000043F040454
:103200003F040400007088FC08300000001820FF14
:10321000211E0000F008F000E018000000211C034F
:103220001E211E0000F00888700000001E212324CB
:103230001927211010160E000000000000000000E9
:1032400000000000000000E0180402000000000779
:103250001820400000020418E00000000040201880
:1032600007000000404080F0804040000202010F53
:1032700001020200000000F0000000000101011F37
:1032800001010100000000000000000080B070009B
:10329000000000000000000000000000000101012B
:1032A00001010101000000000000000000303000BA
:1032B0000000000000000000806018040060180694
:1032C0000100000000E010080810E000000F1020CE
:1032D00020100F00001010F8000000000020203F18
:1032E00020200000007008080888700000302824A2
:1032F0002221300000300888884830000018202043
:1033000020110E000000C02010F800000007042467
:10331000243F240000F808888808080000192120AC
:1033200020110E0000E0108888180000000F112006
:1033300020110E0000380808C83808000000003FBF
:10334000000000000070880808887000001C22211E
:1033500021221C0000E010080810E00000003122CB
:1033600022110F00000000C0C0000000000000306B
:1033700030000000000000800000000000008060BD
:10338000000000000000804020100800000102043E
:103390000810200040404040404040000404040425
:1033A00004040400000810204080000000201008E1
:1033B00004020100007048080808F0000000003016
:1033C00036010000C030C828E810E00007182724A4
:1033D00023140B000000C038E0000000203C230252
:1033E0000227382008F8888888700000203F2020B5
:1033F00020110E00C03008080808380007182020E7
:103400002010080008F808080810E000203F2020DD
:1034100020100F0008F88888E8081000203F2020BE
:103420002320180008F88888E8081000203F2000B2
:1034300003000000C03008080838000007182020EA
:10344000221E020008F808000008F808203F2101A9
:1034500001213F20000808F8080800000020203F54
:103460002020000000000808F8080800C0808080C4
:103470007F00000008F888C028180800203F2001BD
:103480002638200008F8080000000000203F202017
:103490002020300008F8F800F8F80800203F003F2E
:1034A000003F200008F830C00008F808203F200046
:1034B00007183F00E01008080810E0000F10202057
:1034C00020100F0008F808080808F000203F21012C
:1034D00001010000E01008080810E0000F18242483
:1034E00038504F0008F8888888887000203F2000F6
:1034F000030C3020007088080808380000382021AC
:1035000021221C00180808F8080818000000203FB5
:103510002000000008F808000008F808001F20201C
:1035200020201F000878880000C8380800000738ED
:103530000E010000F80800F80008F800033C07003E
:10354000073C0300081868808068180820302C03A6
:10355000032C30200838C800C83808000000203F7D
:103560002000000010080808C8380800203826216C
:1035700020201800000000FE020202000000007F70
:1035800040404000000C30C000000000000000017E
:103590000638C00000020202FE0000000040404069
:1035A0007F0000000000040202020400000000008E
:1035B000000000000000000000000000808080800B
:1035C00080808080000202040000000000000000F3
:1035D000000000000000808080800000001924228C
:1035E00022223F2008F8008080000000003F1120C8
:1035F00020110E000000008080800000000E1120CD
:1036000020201100000000808088F800000E1120AA
:1036100020103F200000808080800000001F2222B8
:1036200022221300008080F0888888180020203F24
:10363000202000000000808080808000006B949437
:103640009493600008F8008080800000203F2100F3
:1036500000203F2000809898000000000020203FBC
:1036600020200000000000809898000000C08080AA
:10367000807F000008F8000080808000203F240246
:103680002D302000000808F8000000000020203F36
:10369000202000008080808080808000203F2000EB
:1036A0003F20003F8080008080800000203F21007C
:1036B00000203F200000808080800000001F20202C
:1036C00020201F00808000808000000080FFA1205B
:1036D00020110E000000008080808000000E11206C
:1036E00020A0FF80808080008080800020203F21FB
:1036F00020000100000080808080800000332424AE
:1037000024241900008080E0808000000000001F59
:10371000202000008080000000808000001F20200A
:1037200020103F20808080000080808000010E30CB
:103730000806010080800080008080800F300C032C
:103740000C300F0000808000808080000020312E2F
:103750000E312000808080000080808080818E700B
:103760001806010000808080808080000021302CBD
:103770002221300000000000807C020200000000D6
:10378000003F404000000000FF000000000000007B
:10379000FF0000000002027C800000000040403F6B
:1037A0000000000000060101020204040000000005
:1037B0000000000000000000000000000000000009
:1037C00000000000000000000000000000000000F9
:1037D00000000000000000000000000000F0F0F019
:1037E000000000000000000000017F010000000058
:1037F00000000000001C1C1C000000000000806095
:10380000301C8C60301C0C00000000000000000028
:1038100000000000000000000000000000000000A8
:10382000000000E00000000000E000000086E69FCD
:1038300086868686E69F860000011F010101010140
:103840001F010100000080C06020F820E0C00000DF
:10385000000003070C18FF70E18100000000070F53
:1038600010107F100F0700008060206080000000B3
:10387000E02000000F3020309F70DC371030C00097
:103880000000100E03000718101807000000C020E9
:1038900020E0C0000000000080E01F38E88703C47B
:1038A0003C040000070F1810100B070D1010080043
:1038B00000808C4C38000000000000000000000078
:1038C00000000000000000000000000000000000F8
:1038D0000000000000000000000080E0300804004C
:1038E0000000000000FEFF010000000000000000DA
:1038F0000000030F1820400000040830E0800000A2
:10390000000000000000000001FFFE0000000000B9
:10391000004020180F03000000000000000000001D
:103920000000C00000000000004266663C18FF185E
:103930003C6666420000000000000300000000003A
:1039400000000000000080000000000000101010C7
:103950001010FF10101010100000000000000300F5
:103960000000000000000000000000000000000057
:1039700000000000000000000000000000808C4CEF
:1039800038000000000000000000000000000000FF
:103990000000000000101010101010101010100087
:1039A0000000000000000000000000000000000017
:1039B0000000000000000000000000000000000007
:1039C0000000000000001C1C1C00000000000000A3
:1039D0000000000000000000E0380C0000000000C3
:1039E00080701C03000000000060380E0100000021
:1039F00000000000000080C060202060C080000047
:103A000000FEFF010000000001FFFE000001070EA4
:103A1000181010180E0701000000808080C0E00020
:103A2000000000000000000000FFFF000000000098
:103A300000001010101F1F10101000000080402008
:103A400020202060C0800000000303008040203858
:103A50001F070000001C1A1918181818181F00005A
:103A60000080C020202060C0800000000003030010
:103A70001010182FE780000000070F10101010180A
:103A80000F070000000000000000C0E0F000000090
:103A900000C0B088868180FFFF80800000000000A9
:103AA0000010101F1F1010000000E06060606060D8
:103AB0006060000000003F1008080818F0E00000F7
:103AC00000070B101010101C0F030000000080C036
:103AD00040202020E0C0000000FCFF211008080862
:103AE00018F0E0000001070C18101010080F030078
:103AF0000000C0E06060606060E060000000030003
:103B00000000E0180700000000000000001F1F0078
:103B1000000000000080C0602020202060C08000E5
:103B20000087EF2C1818303068CF830000070F088B
:103B300010101010180F07000000C0C02020202017
:103B4000C0800000001F3F604040402010FFFE008A
:103B500000000C1C101010080F03000000000000F3
:103B6000000000000000000000000000000E0E0E2B
:103B70000000000000000000001C1C1C00000000F1
:103B80000000000000000000000000000000000035
:103B9000000C0C000000000000000000005838007D
:103BA0000000000000000000000000804020100025
:103BB0000000102844820100000000000000000006
:103BC00000000102040810000000000000000000D6
:103BD00000000000008484848484848484848400BD
:103BE00000000000000000000000000000001020A5
:103BF0004080000000000000000000000000018282
:103C00004428100000001008040201000000000019
:103C100000C020201010101030E0C000000303008E
:103C200000F010080C070300000000001C1C1C0022
:103C300000000000000000C0406020202040C000C4
:103C400000FCFF01F00E03C1FE03807F0001070EA0
:103C500008111110110904020000000080E0E000CA
:103C6000000000000000807C4340477FF880000097
:103C700010181F1000000000131F1C1020E0E0208F
:103C800020202060C080000000FFFF1010101018DE
:103C90002FE78000101F1F1010101010180F0700C2
:103CA000000080C0402020202060E00000FCFF01D8
:103CB00000000000000001000001070E18101010A5
:103CC0000804030020E0E02020202040C080000005
:103CD00000FFFF000000000001FFFE00101F1F108A
:103CE000101018080E07010020E0E02020202020FE
:103CF0002060800000FFFF101010107C000000000A
:103D0000101F1F10101010101018060020E0E020E7
:103D1000202020206060800000FFFF101010107C29
:103D200000000100101F1F10000000000000000034
:103D3000000080C06020202040E0000000FCFF0167
:103D400000004040C0C140400001070E1810101094
:103D50000F0F000020E0E0200000000020E0E02045
:103D600000FFFF101010101010FFFF00101F1F1099
:103D700000000000101F1F100000202020E0E020A5
:103D8000202000000000000000FFFF0000000000F5
:103D900000001010101F1F10101000000000000085
:103DA000202020E0E020202000000000000000FF94
:103DB000FF0000000060E0808080C07F3F000000C6
:103DC00020E0E020000020A06020200000FFFF3065
:103DD000187CE3C000000000101F1F10000001133A
:103DE0001F1C181020E0E020000000000000000070
:103DF00000FFFF000000000000000000101F1F1067
:103E0000101010101018060020E0E0E00000000084
:103E1000E0E0E02000FF013FFEC0E01E01FFFF00E8
:103E2000101F1000031F0300101F1F1020E0E0C030
:103E3000000000000020E02000FF0003071C78E0E5
:103E40008000FF00101F100000000000030F1F0083
:103E5000000080C060202060C080000000FEFF01E4
:103E60000000000000FFFE000001070E18101018EF
:103E70000C07010020E0E0202020202060C080000E
:103E800000FFFF2020202020301F0F00101F1F10D8
:103E90000000000000000000000080C060202060E2
:103EA000C080000000FEFF010000000000FFFE00D7
:103EB0000001070E1111133C7C67210020E0E02077
:103EC0002020202060C0800000FFFF101030F0D0C4
:103ED000080F0700101F1F10000000030F1C101018
:103EE0000080C060202020204040E00000070F0C30
:103EF0001818303060E08100001F0C0810101010FE
:103F0000180F07008060202020E0E0202020608043
:103F10000100000000FFFF000000000100000000A1
:103F2000101F1F100000000020E0E0200000000033
:103F30000020E02000FFFF00000000000000FF0064
:103F400000070F1810101010100807002060E0E0A4
:103F50002000000020E060200000077FF880008043
:103F60007C03000000000000071F1C070000000089
:103F700020E0E02000E0E0200020E0200007FFF843
:103F8000E01FFFFCE01F00000000031F0300011FF3
:103F900003000000002060E0A0000020E06020009E
:103FA000000000038F7CF8C6010000000010181EFE
:103FB000130001171F1810002060E0E0200000002F
:103FC00020E06020000001073EF8E0180700000034
:103FD00000000010101F1F10100000000080602063
:103FE000202020A0E0E0200000000000C0F03E0FF4
:103FF0000300000000101C1F1710101010180600FE
:104000000000000000FC04040404040000000000A0
:1040100000FF00000000000000000000007F4040A2
:1040200040404000000010E00000000000000000E0
:1040300000000000031C6080000000000000000081
:10404000000000030C70800000000404040404FC61
:104050000000000000000000000000FF0000000061
:10406000000040404040407F000000000000001081
:10407000080C040C08100000000000000000000004
:104080000000000000000000000000000000000030
:104090000000000000000000000000000000000020
:1040A0000000000000000000808080808080808010
:1040B00080808080000000040408080000000000E8
:1040C00000000000000000000000000000000000F0
:1040D00000000000000000000000000000000000E0
:1040E00000000000000098D844642424FCF800007C
:1040F000000F1F18101010081F1F10180020E0F0EC
:1041000000000000000000000000FFFF1808040489
:104110000CF8F00000001F0F18101010180F03000B
:1041200000000000000000000000000000E0F8189F
:104130000404043C3800000000030F0C10101010A1
:10414000080600000000000000000020E0F0000071
:1041500000E0F81C04040408FFFF000000030F182F
:10416000101010081F0F08000000000000000000E1
:10417000000000000000E0F8484444444C7870001F
:104180000000030F0C1810101008040000000000BD
:1041900080C0602020E0C00000040404FFFF04048D
:1041A00004040000000010101F1F10101000000079
:1041B000000000000000000000000000000070F897
:1041C0008C04048CF874040C007076CF8D8D8D896E
:1041D000C87870000020E0F000000000000000003F
:1041E0000000FFFF08040404FCF8000000101F1F7B
:1041F000100000101F1F1000000000000060600091
:10420000000000000000040404FCFC0000000000AA
:1042100000001010101F1F10101000000000000000
:10422000000000606000000000000000040404FCC6
:10423000FC0000000000C0C08080C07F3F00000084
:104240000020E0F000000000000000000000FFFF80
:1042500080C0F41C0404000000101F1F1100031F85
:104260001C1010000000202020E0F00000000000E2
:104270000000000000FFFF00000000000000101020
:10428000101F1F10101000000000000000000000B0
:104290000000000004FCFC0804FCFC0804FCFC001A
:1042A000101F1F10001F1F10001F1F100000000014
:1042B00000000000000000000004FCFC08080404EA
:1042C000FCF8000000101F1F100000101F1F10003E
:1042D00000000000000000000000000000E0F018F6
:1042E0000C04040C18F0E00000030F0C1010101068
:1042F0000C0F0300000000000000000000000000A0
:104300000004FCFC080404040CF8F0000080FFFF2B
:10431000889010101C0F0300000000000000000037
:104320000000000000E0F81C04040408F8FC000091
:1043300000030F1810109088FFFF8000000000009D
:104340000000000000000000040404FCFC1008044D
:10435000040C0C001010101F1F10101000000000A3
:1043600000000000000000000000000000003078A5
:10437000CCC48484840C1C0000001E181010101182
:10438000190F06000000000000C00000000000003F
:1043900000040404FFFF0404040000000000000007
:1043A0000F1F1010100C00000000000000000000A3
:1043B000000000000004FCFE00000004FCFE000001
:1043C00000000F1F181010081F0F08000000000049
:1043D000000000000000000000040C3CFCC40000D1
:1043E000C43C0C0400000000010F1E0E0100000080
:1043F000000000000000000000000000043CFCC4BD
:1044000000E47CFC84807C040000071F0700000798
:104410001F07000000000000000000000000000076
:104420000004041C7CE4C0341C0404000010101CB4
:104430001601131F1C1810000000000000000000EF
:104440000000000000040C3CFCC400C43C04040058
:104450000000C080C1370E01000000000000000015
:10446000000000000000000000001C0404C4F47CF4
:104470001C0400000000101C1F17111010180E0063
:1044800000000000000000F80C0400000000000024
:10449000001028EF00000000000000000000003FB6
:1044A00060400000000000000000FF00000000006D
:1044B000000000000000FF000000000000000000FD
:1044C0000000FF00000000000000040CF8000000E5
:1044D0000000000000000000EF28100000000000B5
:1044E000000040603F0000000000000000180602CD
:1044F0000204081020203008000000000000000026
:1045000000000000000000000000000000000000AB
:104510000000F010101010FF10101010F00000003C
:1045200000000F04040404FF040404040F0000004E
:104530004040405F555555755555555F40404000CA
:104540000040200F094989790909090F204000001E
:1045500000FE02424ACA4A4ACA4A4A4202FE0000D1
:1045600000FF40504C4340404F50505C40FF000023
:104570000000F888888888FF88888888F80000000C
:1045800000001F080808087F888888889F80F0003E
:1045900080828282828282E2A2928A8682808000E7
:1045A000000000000040807F0000000000000000CC
:1045B000101010FF109008888888FF8888880800ED
:1045C0000444827F01808040432C10284681800073
:1045D0000010101010D030FF30D0121C101000004E
:1045E00010080402010000FF00000102040810008E
:1045F00004040484E43C2724242424E40404040064
:1046000004020100FF0909090949897F000000002F
:1046100000FE225A8600FE9292929292FE000000C4
:1046200000FF04080700FF4020030C142241400053
:1046300000804020180680000718204080000000FD
:10464000010020702826212020243860000101006C
:10465000001012929292929292121202FE000000A8
:104660000000003F101010103F0040807F0000004D
:10467000000000C080808080808080FC84808080FA
:10468000808080C0C0000000000000FF7F404040EC
:10469000404040FF40404040404040FF7F0000001D
:1046A00000000000000000000000007F700000001B
:1046B00000000000000000000000000000000000FA
:1046C00000000000000000FCF800000000000000F6
:1046D000000000000000000000000000FFFE0202D9
:1046E00002020202020202FFFF02020202020202B0
:1046F0000202FF0300000000000000001F1F04046E
:1047000004040404040404FFFF0404040404040473
:1047100004041F0000000000000000000000000072
:10472000000000000000007F3F00000000000000CB
:104730000000000000000000000000000000000079
:104740000000000000000000000000000000000069
:104750000000000000F8F8F0F070200000000000F9
:104760000000000000000000000000000000000049
:104770000000000000000000000000000000000039
:1047800080000000000000000000000000000000A9
:104790000000000000FFFFFFFF000000000000001D
:1047A0000000000000000000000000008080000009
:1047B00000000000000000000000000000000000F9
:1047C00000FFFFFE060606060606060606060606A5
:1047D0000606060606FFFFFFFF0606060606060695
:1047E0000606060606060606060606FFFFFFFF0784
:1047F00002000000000000000000000000000000B7
:1048000000FFFFFF000000000000000000000000AB
:104810000000000000FFFFFFFF000000000000009C
:104820000000000000000000000000FFFFFFFF008C
:104830000000000000000000000000000000000078
:1048400000FFFFFF1818181818181818181818184B
:104850001818181818FFFFFFFF181818181818183C
:104860001818181818181818181818FFFFFFFF0044
:104870000000000000000000000000000000000038
:104880000201010000000000000000000000000024
:104890000000000000FFFFFFFF000000000000001C
:1048A0000000000000000000000000010100000006
:1048B00000000000000000000000000000000000F8
:1048C00000000000000000000000000000000000E8
:1048D0000000000000FFFFFFFF00000000000000DC
:1048E00000000000000000000000000000000000C8
:1048F00000000000000000000000000000000000B8
:1049000000000000000000000000000000000000A7
:1049100000000000001F1F0F0F000000000000003B
:104920000000000000000000000000000000000087
:104930000000000000000000000000000000000077
:104940000102030406070809000000000102030435
:104950007049000800000020580100006C010008A8
:10496000584A0008580100202023000000220008B7
:1049700081142B42602A2C08134060520F1201133D
:1049800085221508010205133923150802030913AE
:104990008526150803040D137927240804011A95A8
:1049A00008140506041AB108140607111ACD0814D4
:1049B00007081213092815080805131A25081409F1
:1049C0000A041A4108140A0B141A5548140B0C1542
:1049D0001A7108140C09161A8D08140D0E041AA960
:1049E00008140E0F171AC508140F10181AE108142E
:1049F000100D191AFD0814110611131924150812A7
:104A0000071213212515081308131AAD0814140AE8
:104A1000141AA19014150B151AC50814160C161AA1
:104A2000E90814170E171A0D8814180F181A3108F0
:104A3000141910191A5508142F60605A02E05A060A
:104A400008320754406C602C4039201F0135320178
:084A500082105324F400000061
:04000005080000ED02
:00000001FF
